{
  "_format": "hh-sol-artifact-1",
  "contractName": "CertificateNFT",
  "sourceName": "contracts/CertificateNFT.sol",
  "abi": [
    {
      "inputs": [],
      "stateMutability": "nonpayable",
      "type": "constructor"
    },
    {
      "inputs": [],
      "name": "AccessControlBadConfirmation",
      "type": "error"
    },
    {
      "inputs": [
        {
          "internalType": "address",
          "name": "account",
          "type": "address"
        },
        {
          "internalType": "bytes32",
          "name": "neededRole",
          "type": "bytes32"
        }
      ],
      "name": "AccessControlUnauthorizedAccount",
      "type": "error"
    },
    {
      "inputs": [],
      "name": "ECDSAInvalidSignature",
      "type": "error"
    },
    {
      "inputs": [
        {
          "internalType": "uint256",
          "name": "length",
          "type": "uint256"
        }
      ],
      "name": "ECDSAInvalidSignatureLength",
      "type": "error"
    },
    {
      "inputs": [
        {
          "internalType": "bytes32",
          "name": "s",
          "type": "bytes32"
        }
      ],
      "name": "ECDSAInvalidSignatureS",
      "type": "error"
    },
    {
      "inputs": [
        {
          "internalType": "address",
          "name": "sender",
          "type": "address"
        },
        {
          "internalType": "uint256",
          "name": "tokenId",
          "type": "uint256"
        },
        {
          "internalType": "address",
          "name": "owner",
          "type": "address"
        }
      ],
      "name": "ERC721IncorrectOwner",
      "type": "error"
    },
    {
      "inputs": [
        {
          "internalType": "address",
          "name": "operator",
          "type": "address"
        },
        {
          "internalType": "uint256",
          "name": "tokenId",
          "type": "uint256"
        }
      ],
      "name": "ERC721InsufficientApproval",
      "type": "error"
    },
    {
      "inputs": [
        {
          "internalType": "address",
          "name": "approver",
          "type": "address"
        }
      ],
      "name": "ERC721InvalidApprover",
      "type": "error"
    },
    {
      "inputs": [
        {
          "internalType": "address",
          "name": "operator",
          "type": "address"
        }
      ],
      "name": "ERC721InvalidOperator",
      "type": "error"
    },
    {
      "inputs": [
        {
          "internalType": "address",
          "name": "owner",
          "type": "address"
        }
      ],
      "name": "ERC721InvalidOwner",
      "type": "error"
    },
    {
      "inputs": [
        {
          "internalType": "address",
          "name": "receiver",
          "type": "address"
        }
      ],
      "name": "ERC721InvalidReceiver",
      "type": "error"
    },
    {
      "inputs": [
        {
          "internalType": "address",
          "name": "sender",
          "type": "address"
        }
      ],
      "name": "ERC721InvalidSender",
      "type": "error"
    },
    {
      "inputs": [
        {
          "internalType": "uint256",
          "name": "tokenId",
          "type": "uint256"
        }
      ],
      "name": "ERC721NonexistentToken",
      "type": "error"
    },
    {
      "anonymous": false,
      "inputs": [
        {
          "indexed": true,
          "internalType": "address",
          "name": "owner",
          "type": "address"
        },
        {
          "indexed": true,
          "internalType": "address",
          "name": "approved",
          "type": "address"
        },
        {
          "indexed": true,
          "internalType": "uint256",
          "name": "tokenId",
          "type": "uint256"
        }
      ],
      "name": "Approval",
      "type": "event"
    },
    {
      "anonymous": false,
      "inputs": [
        {
          "indexed": true,
          "internalType": "address",
          "name": "owner",
          "type": "address"
        },
        {
          "indexed": true,
          "internalType": "address",
          "name": "operator",
          "type": "address"
        },
        {
          "indexed": false,
          "internalType": "bool",
          "name": "approved",
          "type": "bool"
        }
      ],
      "name": "ApprovalForAll",
      "type": "event"
    },
    {
      "anonymous": false,
      "inputs": [
        {
          "indexed": false,
          "internalType": "uint256",
          "name": "_fromTokenId",
          "type": "uint256"
        },
        {
          "indexed": false,
          "internalType": "uint256",
          "name": "_toTokenId",
          "type": "uint256"
        }
      ],
      "name": "BatchMetadataUpdate",
      "type": "event"
    },
    {
      "anonymous": false,
      "inputs": [
        {
          "indexed": true,
          "internalType": "uint256",
          "name": "tokenId",
          "type": "uint256"
        },
        {
          "indexed": true,
          "internalType": "address",
          "name": "issuer",
          "type": "address"
        },
        {
          "indexed": true,
          "internalType": "address",
          "name": "student",
          "type": "address"
        },
        {
          "indexed": false,
          "internalType": "string",
          "name": "metadataURI",
          "type": "string"
        }
      ],
      "name": "CertificateIssued",
      "type": "event"
    },
    {
      "anonymous": false,
      "inputs": [
        {
          "indexed": false,
          "internalType": "uint256",
          "name": "_tokenId",
          "type": "uint256"
        }
      ],
      "name": "MetadataUpdate",
      "type": "event"
    },
    {
      "anonymous": false,
      "inputs": [
        {
          "indexed": true,
          "internalType": "bytes32",
          "name": "role",
          "type": "bytes32"
        },
        {
          "indexed": true,
          "internalType": "bytes32",
          "name": "previousAdminRole",
          "type": "bytes32"
        },
        {
          "indexed": true,
          "internalType": "bytes32",
          "name": "newAdminRole",
          "type": "bytes32"
        }
      ],
      "name": "RoleAdminChanged",
      "type": "event"
    },
    {
      "anonymous": false,
      "inputs": [
        {
          "indexed": true,
          "internalType": "bytes32",
          "name": "role",
          "type": "bytes32"
        },
        {
          "indexed": true,
          "internalType": "address",
          "name": "account",
          "type": "address"
        },
        {
          "indexed": true,
          "internalType": "address",
          "name": "sender",
          "type": "address"
        }
      ],
      "name": "RoleGranted",
      "type": "event"
    },
    {
      "anonymous": false,
      "inputs": [
        {
          "indexed": true,
          "internalType": "bytes32",
          "name": "role",
          "type": "bytes32"
        },
        {
          "indexed": true,
          "internalType": "address",
          "name": "account",
          "type": "address"
        },
        {
          "indexed": true,
          "internalType": "address",
          "name": "sender",
          "type": "address"
        }
      ],
      "name": "RoleRevoked",
      "type": "event"
    },
    {
      "anonymous": false,
      "inputs": [
        {
          "indexed": true,
          "internalType": "address",
          "name": "from",
          "type": "address"
        },
        {
          "indexed": true,
          "internalType": "address",
          "name": "to",
          "type": "address"
        },
        {
          "indexed": true,
          "internalType": "uint256",
          "name": "tokenId",
          "type": "uint256"
        }
      ],
      "name": "Transfer",
      "type": "event"
    },
    {
      "inputs": [],
      "name": "DEFAULT_ADMIN_ROLE",
      "outputs": [
        {
          "internalType": "bytes32",
          "name": "",
          "type": "bytes32"
        }
      ],
      "stateMutability": "view",
      "type": "function"
    },
    {
      "inputs": [],
      "name": "ISSUER_ROLE",
      "outputs": [
        {
          "internalType": "bytes32",
          "name": "",
          "type": "bytes32"
        }
      ],
      "stateMutability": "view",
      "type": "function"
    },
    {
      "inputs": [],
      "name": "VERIFIER_ROLE",
      "outputs": [
        {
          "internalType": "bytes32",
          "name": "",
          "type": "bytes32"
        }
      ],
      "stateMutability": "view",
      "type": "function"
    },
    {
      "inputs": [
        {
          "internalType": "address",
          "name": "to",
          "type": "address"
        },
        {
          "internalType": "uint256",
          "name": "tokenId",
          "type": "uint256"
        }
      ],
      "name": "approve",
      "outputs": [],
      "stateMutability": "nonpayable",
      "type": "function"
    },
    {
      "inputs": [
        {
          "internalType": "address",
          "name": "owner",
          "type": "address"
        }
      ],
      "name": "balanceOf",
      "outputs": [
        {
          "internalType": "uint256",
          "name": "",
          "type": "uint256"
        }
      ],
      "stateMutability": "view",
      "type": "function"
    },
    {
      "inputs": [
        {
          "internalType": "uint256",
          "name": "tokenId",
          "type": "uint256"
        }
      ],
      "name": "getApproved",
      "outputs": [
        {
          "internalType": "address",
          "name": "",
          "type": "address"
        }
      ],
      "stateMutability": "view",
      "type": "function"
    },
    {
      "inputs": [
        {
          "internalType": "bytes32",
          "name": "role",
          "type": "bytes32"
        }
      ],
      "name": "getRoleAdmin",
      "outputs": [
        {
          "internalType": "bytes32",
          "name": "",
          "type": "bytes32"
        }
      ],
      "stateMutability": "view",
      "type": "function"
    },
    {
      "inputs": [
        {
          "internalType": "bytes32",
          "name": "role",
          "type": "bytes32"
        },
        {
          "internalType": "address",
          "name": "account",
          "type": "address"
        }
      ],
      "name": "grantRole",
      "outputs": [],
      "stateMutability": "nonpayable",
      "type": "function"
    },
    {
      "inputs": [
        {
          "internalType": "bytes32",
          "name": "role",
          "type": "bytes32"
        },
        {
          "internalType": "address",
          "name": "account",
          "type": "address"
        }
      ],
      "name": "hasRole",
      "outputs": [
        {
          "internalType": "bool",
          "name": "",
          "type": "bool"
        }
      ],
      "stateMutability": "view",
      "type": "function"
    },
    {
      "inputs": [
        {
          "internalType": "address",
          "name": "owner",
          "type": "address"
        },
        {
          "internalType": "address",
          "name": "operator",
          "type": "address"
        }
      ],
      "name": "isApprovedForAll",
      "outputs": [
        {
          "internalType": "bool",
          "name": "",
          "type": "bool"
        }
      ],
      "stateMutability": "view",
      "type": "function"
    },
    {
      "inputs": [
        {
          "internalType": "address",
          "name": "student",
          "type": "address"
        },
        {
          "internalType": "string",
          "name": "metadataURI",
          "type": "string"
        },
        {
          "internalType": "bytes",
          "name": "signature",
          "type": "bytes"
        }
      ],
      "name": "mintCertificate",
      "outputs": [
        {
          "internalType": "uint256",
          "name": "",
          "type": "uint256"
        }
      ],
      "stateMutability": "nonpayable",
      "type": "function"
    },
    {
      "inputs": [],
      "name": "name",
      "outputs": [
        {
          "internalType": "string",
          "name": "",
          "type": "string"
        }
      ],
      "stateMutability": "view",
      "type": "function"
    },
    {
      "inputs": [
        {
          "internalType": "uint256",
          "name": "tokenId",
          "type": "uint256"
        }
      ],
      "name": "ownerOf",
      "outputs": [
        {
          "internalType": "address",
          "name": "",
          "type": "address"
        }
      ],
      "stateMutability": "view",
      "type": "function"
    },
    {
      "inputs": [
        {
          "internalType": "bytes32",
          "name": "role",
          "type": "bytes32"
        },
        {
          "internalType": "address",
          "name": "callerConfirmation",
          "type": "address"
        }
      ],
      "name": "renounceRole",
      "outputs": [],
      "stateMutability": "nonpayable",
      "type": "function"
    },
    {
      "inputs": [
        {
          "internalType": "bytes32",
          "name": "role",
          "type": "bytes32"
        },
        {
          "internalType": "address",
          "name": "account",
          "type": "address"
        }
      ],
      "name": "revokeRole",
      "outputs": [],
      "stateMutability": "nonpayable",
      "type": "function"
    },
    {
      "inputs": [
        {
          "internalType": "address",
          "name": "from",
          "type": "address"
        },
        {
          "internalType": "address",
          "name": "to",
          "type": "address"
        },
        {
          "internalType": "uint256",
          "name": "tokenId",
          "type": "uint256"
        }
      ],
      "name": "safeTransferFrom",
      "outputs": [],
      "stateMutability": "nonpayable",
      "type": "function"
    },
    {
      "inputs": [
        {
          "internalType": "address",
          "name": "from",
          "type": "address"
        },
        {
          "internalType": "address",
          "name": "to",
          "type": "address"
        },
        {
          "internalType": "uint256",
          "name": "tokenId",
          "type": "uint256"
        },
        {
          "internalType": "bytes",
          "name": "data",
          "type": "bytes"
        }
      ],
      "name": "safeTransferFrom",
      "outputs": [],
      "stateMutability": "nonpayable",
      "type": "function"
    },
    {
      "inputs": [
        {
          "internalType": "address",
          "name": "operator",
          "type": "address"
        },
        {
          "internalType": "bool",
          "name": "approved",
          "type": "bool"
        }
      ],
      "name": "setApprovalForAll",
      "outputs": [],
      "stateMutability": "nonpayable",
      "type": "function"
    },
    {
      "inputs": [
        {
          "internalType": "bytes4",
          "name": "interfaceId",
          "type": "bytes4"
        }
      ],
      "name": "supportsInterface",
      "outputs": [
        {
          "internalType": "bool",
          "name": "",
          "type": "bool"
        }
      ],
      "stateMutability": "view",
      "type": "function"
    },
    {
      "inputs": [],
      "name": "symbol",
      "outputs": [
        {
          "internalType": "string",
          "name": "",
          "type": "string"
        }
      ],
      "stateMutability": "view",
      "type": "function"
    },
    {
      "inputs": [
        {
          "internalType": "uint256",
          "name": "tokenId",
          "type": "uint256"
        }
      ],
      "name": "tokenURI",
      "outputs": [
        {
          "internalType": "string",
          "name": "",
          "type": "string"
        }
      ],
      "stateMutability": "view",
      "type": "function"
    },
    {
      "inputs": [
        {
          "internalType": "address",
          "name": "from",
          "type": "address"
        },
        {
          "internalType": "address",
          "name": "to",
          "type": "address"
        },
        {
          "internalType": "uint256",
          "name": "tokenId",
          "type": "uint256"
        }
      ],
      "name": "transferFrom",
      "outputs": [],
      "stateMutability": "nonpayable",
      "type": "function"
    },
    {
      "inputs": [
        {
          "internalType": "uint256",
          "name": "tokenId",
          "type": "uint256"
        }
      ],
      "name": "verifyCertificate",
      "outputs": [
        {
          "internalType": "bool",
          "name": "",
          "type": "bool"
        }
      ],
      "stateMutability": "view",
      "type": "function"
    },
    {
      "inputs": [
        {
          "internalType": "uint256",
          "name": "tokenId",
          "type": "uint256"
        }
      ],
      "name": "viewCertificate",
      "outputs": [
        {
          "internalType": "string",
          "name": "metadataURI",
          "type": "string"
        },
        {
          "internalType": "address",
          "name": "issuer",
          "type": "address"
        },
        {
          "internalType": "uint256",
          "name": "issuedAt",
          "type": "uint256"
        },
        {
          "internalType": "bytes",
          "name": "signature",
          "type": "bytes"
        }
      ],
      "stateMutability": "view",
      "type": "function"
    }
  ],
  "bytecode": "0x60806040523480156200001157600080fd5b506040518060400160405280601381526020017f41636164656d69634365727469666963617465000000000000000000000000008152506040518060400160405280600581526020017f414345525400000000000000000000000000000000000000000000000000000081525081600090816200008f9190620004b1565b508060019081620000a19190620004b1565b505050620000b96000801b33620000c060201b60201c565b5062000598565b6000620000d48383620001c460201b60201c565b620001b95760016007600085815260200190815260200160002060000160008473ffffffffffffffffffffffffffffffffffffffff1673ffffffffffffffffffffffffffffffffffffffff16815260200190815260200160002060006101000a81548160ff021916908315150217905550620001556200022f60201b60201c565b73ffffffffffffffffffffffffffffffffffffffff168273ffffffffffffffffffffffffffffffffffffffff16847f2f8788117e7eff1d82e926ec794901d17c78024a50270940304540a733656f0d60405160405180910390a460019050620001be565b600090505b92915050565b60006007600084815260200190815260200160002060000160008373ffffffffffffffffffffffffffffffffffffffff1673ffffffffffffffffffffffffffffffffffffffff16815260200190815260200160002060009054906101000a900460ff16905092915050565b600033905090565b600081519050919050565b7f4e487b7100000000000000000000000000000000000000000000000000000000600052604160045260246000fd5b7f4e487b7100000000000000000000000000000000000000000000000000000000600052602260045260246000fd5b60006002820490506001821680620002b957607f821691505b602082108103620002cf57620002ce62000271565b5b50919050565b60008190508160005260206000209050919050565b60006020601f8301049050919050565b600082821b905092915050565b600060088302620003397fffffffffffffffffffffffffffffffffffffffffffffffffffffffffffffffff82620002fa565b620003458683620002fa565b95508019841693508086168417925050509392505050565b6000819050919050565b6000819050919050565b6000620003926200038c62000386846200035d565b62000367565b6200035d565b9050919050565b6000819050919050565b620003ae8362000371565b620003c6620003bd8262000399565b84845462000307565b825550505050565b600090565b620003dd620003ce565b620003ea818484620003a3565b505050565b5b81811015620004125762000406600082620003d3565b600181019050620003f0565b5050565b601f82111562000461576200042b81620002d5565b6200043684620002ea565b8101602085101562000446578190505b6200045e6200045585620002ea565b830182620003ef565b50505b505050565b600082821c905092915050565b6000620004866000198460080262000466565b1980831691505092915050565b6000620004a1838362000473565b9150826002028217905092915050565b620004bc8262000237565b67ffffffffffffffff811115620004d857620004d762000242565b5b620004e48254620002a0565b620004f182828562000416565b600060209050601f83116001811462000529576000841562000514578287015190505b62000520858262000493565b86555062000590565b601f1984166200053986620002d5565b60005b8281101562000563578489015182556001820191506020850194506020810190506200053c565b868310156200058357848901516200057f601f89168262000473565b8355505b6001600288020188555050505b505050505050565b61391e80620005a86000396000f3fe608060405234801561001057600080fd5b50600436106101585760003560e01c806382aefa24116100c3578063a535cd3d1161007c578063a535cd3d146103fd578063b88d4fde14610430578063c87b56dd1461044c578063d547741f1461047c578063e7705db614610498578063e985e9c5146104b657610158565b806382aefa241461032757806391d148541461034557806395d89b4114610375578063a168ed9114610393578063a217fddf146103c3578063a22cb465146103e157610158565b8063248a9ca311610115578063248a9ca3146102435780632f2ff15d1461027357806336568abe1461028f57806342842e0e146102ab5780636352211e146102c757806370a08231146102f757610158565b806301ffc9a71461015d57806306fdde031461018d578063081812fc146101ab578063095ea7b3146101db5780631692a942146101f757806323b872dd14610227575b600080fd5b6101776004803603810190610172919061281d565b6104e6565b6040516101849190612865565b60405180910390f35b6101956104f8565b6040516101a29190612910565b60405180910390f35b6101c560048036038101906101c09190612968565b61058a565b6040516101d291906129d6565b60405180910390f35b6101f560048036038101906101f09190612a1d565b6105a6565b005b610211600480360381019061020c9190612968565b6105bc565b60405161021e9190612865565b60405180910390f35b610241600480360381019061023c9190612a5d565b610742565b005b61025d60048036038101906102589190612ae6565b610844565b60405161026a9190612b22565b60405180910390f35b61028d60048036038101906102889190612b3d565b610864565b005b6102a960048036038101906102a49190612b3d565b610886565b005b6102c560048036038101906102c09190612a5d565b610901565b005b6102e160048036038101906102dc9190612968565b610921565b6040516102ee91906129d6565b60405180910390f35b610311600480360381019061030c9190612b7d565b610933565b60405161031e9190612bb9565b60405180910390f35b61032f6109ed565b60405161033c9190612b22565b60405180910390f35b61035f600480360381019061035a9190612b3d565b610a11565b60405161036c9190612865565b60405180910390f35b61037d610a7c565b60405161038a9190612910565b60405180910390f35b6103ad60048036038101906103a89190612c8f565b610b0e565b6040516103ba9190612bb9565b60405180910390f35b6103cb610df9565b6040516103d89190612b22565b60405180910390f35b6103fb60048036038101906103f69190612d50565b610e00565b005b61041760048036038101906104129190612968565b610e16565b6040516104279493929190612de5565b60405180910390f35b61044a60048036038101906104459190612f68565b611046565b005b61046660048036038101906104619190612968565b61106b565b6040516104739190612910565b60405180910390f35b61049660048036038101906104919190612b3d565b61117e565b005b6104a06111a0565b6040516104ad9190612b22565b60405180910390f35b6104d060048036038101906104cb9190612feb565b6111c4565b6040516104dd9190612865565b60405180910390f35b60006104f182611258565b9050919050565b6060600080546105079061305a565b80601f01602080910402602001604051908101604052809291908181526020018280546105339061305a565b80156105805780601f1061055557610100808354040283529160200191610580565b820191906000526020600020905b81548152906001019060200180831161056357829003601f168201915b5050505050905090565b6000610595826112d2565b5061059f8261135a565b9050919050565b6105b882826105b3611397565b61139f565b5050565b6000806105c88361106b565b90506000600960008581526020019081526020016000206040518060600160405290816000820160009054906101000a900473ffffffffffffffffffffffffffffffffffffffff1673ffffffffffffffffffffffffffffffffffffffff1673ffffffffffffffffffffffffffffffffffffffff1681526020016001820154815260200160028201805461065a9061305a565b80601f01602080910402602001604051908101604052809291908181526020018280546106869061305a565b80156106d35780601f106106a8576101008083540402835291602001916106d3565b820191906000526020600020905b8154815290600101906020018083116106b657829003601f168201915b505050505081525050905060008280519060200120905060006106f5826113b1565b9050826000015173ffffffffffffffffffffffffffffffffffffffff166107208285604001516113e1565b73ffffffffffffffffffffffffffffffffffffffff1614945050505050919050565b600073ffffffffffffffffffffffffffffffffffffffff168273ffffffffffffffffffffffffffffffffffffffff16036107b45760006040517f64a0ae920000000000000000000000000000000000000000000000000000000081526004016107ab91906129d6565b60405180910390fd5b60006107c883836107c3611397565b61140d565b90508373ffffffffffffffffffffffffffffffffffffffff168173ffffffffffffffffffffffffffffffffffffffff161461083e578382826040517f64283d7b0000000000000000000000000000000000000000000000000000000081526004016108359392919061308b565b60405180910390fd5b50505050565b600060076000838152602001908152602001600020600101549050919050565b61086d82610844565b61087681611627565b610880838361163b565b50505050565b61088e611397565b73ffffffffffffffffffffffffffffffffffffffff168173ffffffffffffffffffffffffffffffffffffffff16146108f2576040517f6697b23200000000000000000000000000000000000000000000000000000000815260040160405180910390fd5b6108fc828261172d565b505050565b61091c83838360405180602001604052806000815250611046565b505050565b600061092c826112d2565b9050919050565b60008073ffffffffffffffffffffffffffffffffffffffff168273ffffffffffffffffffffffffffffffffffffffff16036109a65760006040517f89c62b6400000000000000000000000000000000000000000000000000000000815260040161099d91906129d6565b60405180910390fd5b600360008373ffffffffffffffffffffffffffffffffffffffff1673ffffffffffffffffffffffffffffffffffffffff168152602001908152602001600020549050919050565b7f114e74f6ea3bd819998f78687bfcb11b140da08e9b7d222fa9c1f1ba1f2aa12281565b60006007600084815260200190815260200160002060000160008373ffffffffffffffffffffffffffffffffffffffff1673ffffffffffffffffffffffffffffffffffffffff16815260200190815260200160002060009054906101000a900460ff16905092915050565b606060018054610a8b9061305a565b80601f0160208091040260200160405190810160405280929190818152602001828054610ab79061305a565b8015610b045780601f10610ad957610100808354040283529160200191610b04565b820191906000526020600020905b815481529060010190602001808311610ae757829003601f168201915b5050505050905090565b60007f114e74f6ea3bd819998f78687bfcb11b140da08e9b7d222fa9c1f1ba1f2aa122610b3a81611627565b60008686604051610b4c9291906130f2565b604051809103902090506000610b61826113b1565b90503373ffffffffffffffffffffffffffffffffffffffff16610bc88288888080601f016020809104026020016040519081016040528093929190818152602001838380828437600081840152601f19601f820116905080830192505050505050506113e1565b73ffffffffffffffffffffffffffffffffffffffff1614610c1e576040517f08c379a0000000000000000000000000000000000000000000000000000000008152600401610c1590613157565b60405180910390fd5b6000600860008154610c2f906131a6565b9190508190559050610c418a82611820565b610c8f818a8a8080601f016020809104026020016040519081016040528093929190818152602001838380828437600081840152601f19601f8201169050808301925050505050505061183e565b60405180606001604052803373ffffffffffffffffffffffffffffffffffffffff16815260200142815260200188888080601f016020809104026020016040519081016040528093929190818152602001838380828437600081840152601f19601f820116905080830192505050505050508152506009600083815260200190815260200160002060008201518160000160006101000a81548173ffffffffffffffffffffffffffffffffffffffff021916908373ffffffffffffffffffffffffffffffffffffffff160217905550602082015181600101556040820151816002019081610d7d919061339a565b509050508973ffffffffffffffffffffffffffffffffffffffff163373ffffffffffffffffffffffffffffffffffffffff16827f6f747fdac87b156ec553ed1d5b44a6d7f348858e9ae1bf353fd667d6560538578c8c604051610de1929190613499565b60405180910390a48094505050505095945050505050565b6000801b81565b610e12610e0b611397565b838361189a565b5050565b606060008060606000610e2886610921565b90506000600960008881526020019081526020016000206040518060600160405290816000820160009054906101000a900473ffffffffffffffffffffffffffffffffffffffff1673ffffffffffffffffffffffffffffffffffffffff1673ffffffffffffffffffffffffffffffffffffffff16815260200160018201548152602001600282018054610eba9061305a565b80601f0160208091040260200160405190810160405280929190818152602001828054610ee69061305a565b8015610f335780601f10610f0857610100808354040283529160200191610f33565b820191906000526020600020905b815481529060010190602001808311610f1657829003601f168201915b505050505081525050905060003373ffffffffffffffffffffffffffffffffffffffff168373ffffffffffffffffffffffffffffffffffffffff161480610fa05750610f9f7f0ce23c3e399818cfee81a7ab0880f714e53d7672b08df0fa62f2843416e1ea0933610a11565b5b80610fda57503373ffffffffffffffffffffffffffffffffffffffff16826000015173ffffffffffffffffffffffffffffffffffffffff16145b90508061101c576040517f08c379a000000000000000000000000000000000000000000000000000000000815260040161101390613509565b60405180910390fd5b6110258861106b565b96508160000151955081602001519450816040015193505050509193509193565b611051848484610742565b61106561105c611397565b85858585611a09565b50505050565b6060611076826112d2565b5060006006600084815260200190815260200160002080546110979061305a565b80601f01602080910402602001604051908101604052809291908181526020018280546110c39061305a565b80156111105780601f106110e557610100808354040283529160200191611110565b820191906000526020600020905b8154815290600101906020018083116110f357829003601f168201915b505050505090506000611121611bba565b90506000815103611136578192505050611179565b60008251111561116b578082604051602001611153929190613565565b60405160208183030381529060405292505050611179565b61117484611bd1565b925050505b919050565b61118782610844565b61119081611627565b61119a838361172d565b50505050565b7f0ce23c3e399818cfee81a7ab0880f714e53d7672b08df0fa62f2843416e1ea0981565b6000600560008473ffffffffffffffffffffffffffffffffffffffff1673ffffffffffffffffffffffffffffffffffffffff16815260200190815260200160002060008373ffffffffffffffffffffffffffffffffffffffff1673ffffffffffffffffffffffffffffffffffffffff16815260200190815260200160002060009054906101000a900460ff16905092915050565b60007f7965db0b000000000000000000000000000000000000000000000000000000007bffffffffffffffffffffffffffffffffffffffffffffffffffffffff1916827bffffffffffffffffffffffffffffffffffffffffffffffffffffffff191614806112cb57506112ca82611c3a565b5b9050919050565b6000806112de83611c9b565b9050600073ffffffffffffffffffffffffffffffffffffffff168173ffffffffffffffffffffffffffffffffffffffff160361135157826040517f7e2732890000000000000000000000000000000000000000000000000000000081526004016113489190612bb9565b60405180910390fd5b80915050919050565b60006004600083815260200190815260200160002060009054906101000a900473ffffffffffffffffffffffffffffffffffffffff169050919050565b600033905090565b6113ac8383836001611cd8565b505050565b6000816040516020016113c491906135f6565b604051602081830303815290604052805190602001209050919050565b6000806000806113f18686611e9d565b9250925092506114018282611ef9565b82935050505092915050565b60008061141984611c9b565b9050600073ffffffffffffffffffffffffffffffffffffffff168373ffffffffffffffffffffffffffffffffffffffff161461145b5761145a81848661205d565b5b600073ffffffffffffffffffffffffffffffffffffffff168173ffffffffffffffffffffffffffffffffffffffff16146114ec5761149d600085600080611cd8565b6001600360008373ffffffffffffffffffffffffffffffffffffffff1673ffffffffffffffffffffffffffffffffffffffff168152602001908152602001600020600082825403925050819055505b600073ffffffffffffffffffffffffffffffffffffffff168573ffffffffffffffffffffffffffffffffffffffff161461156f576001600360008773ffffffffffffffffffffffffffffffffffffffff1673ffffffffffffffffffffffffffffffffffffffff168152602001908152602001600020600082825401925050819055505b846002600086815260200190815260200160002060006101000a81548173ffffffffffffffffffffffffffffffffffffffff021916908373ffffffffffffffffffffffffffffffffffffffff160217905550838573ffffffffffffffffffffffffffffffffffffffff168273ffffffffffffffffffffffffffffffffffffffff167fddf252ad1be2c89b69c2b068fc378daa952ba7f163c4a11628f55a4df523b3ef60405160405180910390a4809150509392505050565b61163881611633611397565b612121565b50565b60006116478383610a11565b6117225760016007600085815260200190815260200160002060000160008473ffffffffffffffffffffffffffffffffffffffff1673ffffffffffffffffffffffffffffffffffffffff16815260200190815260200160002060006101000a81548160ff0219169083151502179055506116bf611397565b73ffffffffffffffffffffffffffffffffffffffff168273ffffffffffffffffffffffffffffffffffffffff16847f2f8788117e7eff1d82e926ec794901d17c78024a50270940304540a733656f0d60405160405180910390a460019050611727565b600090505b92915050565b60006117398383610a11565b156118155760006007600085815260200190815260200160002060000160008473ffffffffffffffffffffffffffffffffffffffff1673ffffffffffffffffffffffffffffffffffffffff16815260200190815260200160002060006101000a81548160ff0219169083151502179055506117b2611397565b73ffffffffffffffffffffffffffffffffffffffff168273ffffffffffffffffffffffffffffffffffffffff16847ff6391f5c32d9c69d2a47ea670b442974b53935d1edc7fd64eb21e047a839171b60405160405180910390a46001905061181a565b600090505b92915050565b61183a828260405180602001604052806000815250612172565b5050565b8060066000848152602001908152602001600020908161185e9190613677565b507ff8e1a15aba9398e019f0b49df1a4fde98ee17ae345cb5f6b5e2c27f5033e8ce78260405161188e9190612bb9565b60405180910390a15050565b600073ffffffffffffffffffffffffffffffffffffffff168273ffffffffffffffffffffffffffffffffffffffff160361190b57816040517f5b08ba1800000000000000000000000000000000000000000000000000000000815260040161190291906129d6565b60405180910390fd5b80600560008573ffffffffffffffffffffffffffffffffffffffff1673ffffffffffffffffffffffffffffffffffffffff16815260200190815260200160002060008473ffffffffffffffffffffffffffffffffffffffff1673ffffffffffffffffffffffffffffffffffffffff16815260200190815260200160002060006101000a81548160ff0219169083151502179055508173ffffffffffffffffffffffffffffffffffffffff168373ffffffffffffffffffffffffffffffffffffffff167f17307eab39ab6107e8899845ad3d59bd9653f200f220920489ca2b5937696c31836040516119fc9190612865565b60405180910390a3505050565b60008373ffffffffffffffffffffffffffffffffffffffff163b1115611bb3578273ffffffffffffffffffffffffffffffffffffffff1663150b7a02868685856040518563ffffffff1660e01b8152600401611a689493929190613749565b6020604051808303816000875af1925050508015611aa457506040513d601f19601f82011682018060405250810190611aa191906137aa565b60015b611b28573d8060008114611ad4576040519150601f19603f3d011682016040523d82523d6000602084013e611ad9565b606091505b506000815103611b2057836040517f64a0ae92000000000000000000000000000000000000000000000000000000008152600401611b1791906129d6565b60405180910390fd5b805181602001fd5b63150b7a0260e01b7bffffffffffffffffffffffffffffffffffffffffffffffffffffffff1916817bffffffffffffffffffffffffffffffffffffffffffffffffffffffff191614611bb157836040517f64a0ae92000000000000000000000000000000000000000000000000000000008152600401611ba891906129d6565b60405180910390fd5b505b5050505050565b606060405180602001604052806000815250905090565b6060611bdc826112d2565b506000611be7611bba565b90506000815111611c075760405180602001604052806000815250611c32565b80611c1184612196565b604051602001611c22929190613565565b6040516020818303038152906040525b915050919050565b6000634906490660e01b7bffffffffffffffffffffffffffffffffffffffffffffffffffffffff1916827bffffffffffffffffffffffffffffffffffffffffffffffffffffffff19161480611c945750611c9382612264565b5b9050919050565b60006002600083815260200190815260200160002060009054906101000a900473ffffffffffffffffffffffffffffffffffffffff169050919050565b8080611d115750600073ffffffffffffffffffffffffffffffffffffffff168273ffffffffffffffffffffffffffffffffffffffff1614155b15611e45576000611d21846112d2565b9050600073ffffffffffffffffffffffffffffffffffffffff168373ffffffffffffffffffffffffffffffffffffffff1614158015611d8c57508273ffffffffffffffffffffffffffffffffffffffff168173ffffffffffffffffffffffffffffffffffffffff1614155b8015611d9f5750611d9d81846111c4565b155b15611de157826040517fa9fbf51f000000000000000000000000000000000000000000000000000000008152600401611dd891906129d6565b60405180910390fd5b8115611e4357838573ffffffffffffffffffffffffffffffffffffffff168273ffffffffffffffffffffffffffffffffffffffff167f8c5be1e5ebec7d5bd14f71427d1e84f3dd0314c0f7b2291e5b200ac8c7c3b92560405160405180910390a45b505b836004600085815260200190815260200160002060006101000a81548173ffffffffffffffffffffffffffffffffffffffff021916908373ffffffffffffffffffffffffffffffffffffffff16021790555050505050565b60008060006041845103611ee25760008060006020870151925060408701519150606087015160001a9050611ed488828585612346565b955095509550505050611ef2565b60006002855160001b9250925092505b9250925092565b60006003811115611f0d57611f0c6137d7565b5b826003811115611f2057611f1f6137d7565b5b03156120595760016003811115611f3a57611f396137d7565b5b826003811115611f4d57611f4c6137d7565b5b03611f84576040517ff645eedf00000000000000000000000000000000000000000000000000000000815260040160405180910390fd5b60026003811115611f9857611f976137d7565b5b826003811115611fab57611faa6137d7565b5b03611ff0578060001c6040517ffce698f7000000000000000000000000000000000000000000000000000000008152600401611fe79190612bb9565b60405180910390fd5b600380811115612003576120026137d7565b5b826003811115612016576120156137d7565b5b0361205857806040517fd78bce0c00000000000000000000000000000000000000000000000000000000815260040161204f9190612b22565b60405180910390fd5b5b5050565b61206883838361243a565b61211c57600073ffffffffffffffffffffffffffffffffffffffff168373ffffffffffffffffffffffffffffffffffffffff16036120dd57806040517f7e2732890000000000000000000000000000000000000000000000000000000081526004016120d49190612bb9565b60405180910390fd5b81816040517f177e802f000000000000000000000000000000000000000000000000000000008152600401612113929190613806565b60405180910390fd5b505050565b61212b8282610a11565b61216e5780826040517fe2517d3f00000000000000000000000000000000000000000000000000000000815260040161216592919061382f565b60405180910390fd5b5050565b61217c83836124fb565b612191612187611397565b6000858585611a09565b505050565b6060600060016121a5846125f4565b01905060008167ffffffffffffffff8111156121c4576121c3612e3d565b5b6040519080825280601f01601f1916602001820160405280156121f65781602001600182028036833780820191505090505b509050600082602001820190505b600115612259578080600190039150507f3031323334353637383961626364656600000000000000000000000000000000600a86061a8153600a858161224d5761224c613858565b5b04945060008503612204575b819350505050919050565b60007f80ac58cd000000000000000000000000000000000000000000000000000000007bffffffffffffffffffffffffffffffffffffffffffffffffffffffff1916827bffffffffffffffffffffffffffffffffffffffffffffffffffffffff1916148061232f57507f5b5e139f000000000000000000000000000000000000000000000000000000007bffffffffffffffffffffffffffffffffffffffffffffffffffffffff1916827bffffffffffffffffffffffffffffffffffffffffffffffffffffffff1916145b8061233f575061233e82612747565b5b9050919050565b60008060007f7fffffffffffffffffffffffffffffff5d576e7357a4501ddfe92f46681b20a08460001c1115612386576000600385925092509250612430565b6000600188888888604051600081526020016040526040516123ab94939291906138a3565b6020604051602081039080840390855afa1580156123cd573d6000803e3d6000fd5b505050602060405103519050600073ffffffffffffffffffffffffffffffffffffffff168173ffffffffffffffffffffffffffffffffffffffff160361242157600060016000801b93509350935050612430565b8060008060001b935093509350505b9450945094915050565b60008073ffffffffffffffffffffffffffffffffffffffff168373ffffffffffffffffffffffffffffffffffffffff16141580156124f257508273ffffffffffffffffffffffffffffffffffffffff168473ffffffffffffffffffffffffffffffffffffffff1614806124b357506124b284846111c4565b5b806124f157508273ffffffffffffffffffffffffffffffffffffffff166124d98361135a565b73ffffffffffffffffffffffffffffffffffffffff16145b5b90509392505050565b600073ffffffffffffffffffffffffffffffffffffffff168273ffffffffffffffffffffffffffffffffffffffff160361256d5760006040517f64a0ae9200000000000000000000000000000000000000000000000000000000815260040161256491906129d6565b60405180910390fd5b600061257b8383600061140d565b9050600073ffffffffffffffffffffffffffffffffffffffff168173ffffffffffffffffffffffffffffffffffffffff16146125ef5760006040517f73c6ac6e0000000000000000000000000000000000000000000000000000000081526004016125e691906129d6565b60405180910390fd5b505050565b600080600090507a184f03e93ff9f4daa797ed6e38ed64bf6a1f0100000000000000008310612652577a184f03e93ff9f4daa797ed6e38ed64bf6a1f010000000000000000838161264857612647613858565b5b0492506040810190505b6d04ee2d6d415b85acef8100000000831061268f576d04ee2d6d415b85acef8100000000838161268557612684613858565b5b0492506020810190505b662386f26fc1000083106126be57662386f26fc1000083816126b4576126b3613858565b5b0492506010810190505b6305f5e10083106126e7576305f5e10083816126dd576126dc613858565b5b0492506008810190505b612710831061270c57612710838161270257612701613858565b5b0492506004810190505b6064831061272f576064838161272557612724613858565b5b0492506002810190505b600a831061273e576001810190505b80915050919050565b60007f01ffc9a7000000000000000000000000000000000000000000000000000000007bffffffffffffffffffffffffffffffffffffffffffffffffffffffff1916827bffffffffffffffffffffffffffffffffffffffffffffffffffffffff1916149050919050565b6000604051905090565b600080fd5b600080fd5b60007fffffffff0000000000000000000000000000000000000000000000000000000082169050919050565b6127fa816127c5565b811461280557600080fd5b50565b600081359050612817816127f1565b92915050565b600060208284031215612833576128326127bb565b5b600061284184828501612808565b91505092915050565b60008115159050919050565b61285f8161284a565b82525050565b600060208201905061287a6000830184612856565b92915050565b600081519050919050565b600082825260208201905092915050565b60005b838110156128ba57808201518184015260208101905061289f565b60008484015250505050565b6000601f19601f8301169050919050565b60006128e282612880565b6128ec818561288b565b93506128fc81856020860161289c565b612905816128c6565b840191505092915050565b6000602082019050818103600083015261292a81846128d7565b905092915050565b6000819050919050565b61294581612932565b811461295057600080fd5b50565b6000813590506129628161293c565b92915050565b60006020828403121561297e5761297d6127bb565b5b600061298c84828501612953565b91505092915050565b600073ffffffffffffffffffffffffffffffffffffffff82169050919050565b60006129c082612995565b9050919050565b6129d0816129b5565b82525050565b60006020820190506129eb60008301846129c7565b92915050565b6129fa816129b5565b8114612a0557600080fd5b50565b600081359050612a17816129f1565b92915050565b60008060408385031215612a3457612a336127bb565b5b6000612a4285828601612a08565b9250506020612a5385828601612953565b9150509250929050565b600080600060608486031215612a7657612a756127bb565b5b6000612a8486828701612a08565b9350506020612a9586828701612a08565b9250506040612aa686828701612953565b9150509250925092565b6000819050919050565b612ac381612ab0565b8114612ace57600080fd5b50565b600081359050612ae081612aba565b92915050565b600060208284031215612afc57612afb6127bb565b5b6000612b0a84828501612ad1565b91505092915050565b612b1c81612ab0565b82525050565b6000602082019050612b376000830184612b13565b92915050565b60008060408385031215612b5457612b536127bb565b5b6000612b6285828601612ad1565b9250506020612b7385828601612a08565b9150509250929050565b600060208284031215612b9357612b926127bb565b5b6000612ba184828501612a08565b91505092915050565b612bb381612932565b82525050565b6000602082019050612bce6000830184612baa565b92915050565b600080fd5b600080fd5b600080fd5b60008083601f840112612bf957612bf8612bd4565b5b8235905067ffffffffffffffff811115612c1657612c15612bd9565b5b602083019150836001820283011115612c3257612c31612bde565b5b9250929050565b60008083601f840112612c4f57612c4e612bd4565b5b8235905067ffffffffffffffff811115612c6c57612c6b612bd9565b5b602083019150836001820283011115612c8857612c87612bde565b5b9250929050565b600080600080600060608688031215612cab57612caa6127bb565b5b6000612cb988828901612a08565b955050602086013567ffffffffffffffff811115612cda57612cd96127c0565b5b612ce688828901612be3565b9450945050604086013567ffffffffffffffff811115612d0957612d086127c0565b5b612d1588828901612c39565b92509250509295509295909350565b612d2d8161284a565b8114612d3857600080fd5b50565b600081359050612d4a81612d24565b92915050565b60008060408385031215612d6757612d666127bb565b5b6000612d7585828601612a08565b9250506020612d8685828601612d3b565b9150509250929050565b600081519050919050565b600082825260208201905092915050565b6000612db782612d90565b612dc18185612d9b565b9350612dd181856020860161289c565b612dda816128c6565b840191505092915050565b60006080820190508181036000830152612dff81876128d7565b9050612e0e60208301866129c7565b612e1b6040830185612baa565b8181036060830152612e2d8184612dac565b905095945050505050565b600080fd5b7f4e487b7100000000000000000000000000000000000000000000000000000000600052604160045260246000fd5b612e75826128c6565b810181811067ffffffffffffffff82111715612e9457612e93612e3d565b5b80604052505050565b6000612ea76127b1565b9050612eb38282612e6c565b919050565b600067ffffffffffffffff821115612ed357612ed2612e3d565b5b612edc826128c6565b9050602081019050919050565b82818337600083830152505050565b6000612f0b612f0684612eb8565b612e9d565b905082815260208101848484011115612f2757612f26612e38565b5b612f32848285612ee9565b509392505050565b600082601f830112612f4f57612f4e612bd4565b5b8135612f5f848260208601612ef8565b91505092915050565b60008060008060808587031215612f8257612f816127bb565b5b6000612f9087828801612a08565b9450506020612fa187828801612a08565b9350506040612fb287828801612953565b925050606085013567ffffffffffffffff811115612fd357612fd26127c0565b5b612fdf87828801612f3a565b91505092959194509250565b60008060408385031215613002576130016127bb565b5b600061301085828601612a08565b925050602061302185828601612a08565b9150509250929050565b7f4e487b7100000000000000000000000000000000000000000000000000000000600052602260045260246000fd5b6000600282049050600182168061307257607f821691505b6020821081036130855761308461302b565b5b50919050565b60006060820190506130a060008301866129c7565b6130ad6020830185612baa565b6130ba60408301846129c7565b949350505050565b600081905092915050565b60006130d983856130c2565b93506130e6838584612ee9565b82840190509392505050565b60006130ff8284866130cd565b91508190509392505050565b7f496e76616c6964207369676e6174757265000000000000000000000000000000600082015250565b600061314160118361288b565b915061314c8261310b565b602082019050919050565b6000602082019050818103600083015261317081613134565b9050919050565b7f4e487b7100000000000000000000000000000000000000000000000000000000600052601160045260246000fd5b60006131b182612932565b91507fffffffffffffffffffffffffffffffffffffffffffffffffffffffffffffffff82036131e3576131e2613177565b5b600182019050919050565b60008190508160005260206000209050919050565b60006020601f8301049050919050565b600082821b905092915050565b6000600883026132507fffffffffffffffffffffffffffffffffffffffffffffffffffffffffffffffff82613213565b61325a8683613213565b95508019841693508086168417925050509392505050565b6000819050919050565b600061329761329261328d84612932565b613272565b612932565b9050919050565b6000819050919050565b6132b18361327c565b6132c56132bd8261329e565b848454613220565b825550505050565b600090565b6132da6132cd565b6132e58184846132a8565b505050565b5b81811015613309576132fe6000826132d2565b6001810190506132eb565b5050565b601f82111561334e5761331f816131ee565b61332884613203565b81016020851015613337578190505b61334b61334385613203565b8301826132ea565b50505b505050565b600082821c905092915050565b600061337160001984600802613353565b1980831691505092915050565b600061338a8383613360565b9150826002028217905092915050565b6133a382612d90565b67ffffffffffffffff8111156133bc576133bb612e3d565b5b6133c6825461305a565b6133d182828561330d565b600060209050601f83116001811461340457600084156133f2578287015190505b6133fc858261337e565b865550613464565b601f198416613412866131ee565b60005b8281101561343a57848901518255600182019150602085019450602081019050613415565b868310156134575784890151613453601f891682613360565b8355505b6001600288020188555050505b505050505050565b6000613478838561288b565b9350613485838584612ee9565b61348e836128c6565b840190509392505050565b600060208201905081810360008301526134b481848661346c565b90509392505050565b7f4163636573732064656e69656400000000000000000000000000000000000000600082015250565b60006134f3600d8361288b565b91506134fe826134bd565b602082019050919050565b60006020820190508181036000830152613522816134e6565b9050919050565b600081905092915050565b600061353f82612880565b6135498185613529565b935061355981856020860161289c565b80840191505092915050565b60006135718285613534565b915061357d8284613534565b91508190509392505050565b7f19457468657265756d205369676e6564204d6573736167653a0a333200000000600082015250565b60006135bf601c83613529565b91506135ca82613589565b601c82019050919050565b6000819050919050565b6135f06135eb82612ab0565b6135d5565b82525050565b6000613601826135b2565b915061360d82846135df565b60208201915081905092915050565b60008190508160005260206000209050919050565b601f821115613672576136438161361c565b61364c84613203565b8101602085101561365b578190505b61366f61366785613203565b8301826132ea565b50505b505050565b61368082612880565b67ffffffffffffffff81111561369957613698612e3d565b5b6136a3825461305a565b6136ae828285613631565b600060209050601f8311600181146136e157600084156136cf578287015190505b6136d9858261337e565b865550613741565b601f1984166136ef8661361c565b60005b82811015613717578489015182556001820191506020850194506020810190506136f2565b868310156137345784890151613730601f891682613360565b8355505b6001600288020188555050505b505050505050565b600060808201905061375e60008301876129c7565b61376b60208301866129c7565b6137786040830185612baa565b818103606083015261378a8184612dac565b905095945050505050565b6000815190506137a4816127f1565b92915050565b6000602082840312156137c0576137bf6127bb565b5b60006137ce84828501613795565b91505092915050565b7f4e487b7100000000000000000000000000000000000000000000000000000000600052602160045260246000fd5b600060408201905061381b60008301856129c7565b6138286020830184612baa565b9392505050565b600060408201905061384460008301856129c7565b6138516020830184612b13565b9392505050565b7f4e487b7100000000000000000000000000000000000000000000000000000000600052601260045260246000fd5b600060ff82169050919050565b61389d81613887565b82525050565b60006080820190506138b86000830187612b13565b6138c56020830186613894565b6138d26040830185612b13565b6138df6060830184612b13565b9594505050505056fea264697066735822122033f9bd62753b86a44eec4cb678d0bb79f3cd8fd7e2dd8682868cd449c7a7b1bc64736f6c63430008140033",
  "linkReferences": {},
  "deployedLinkReferences": {}
}